:060000000A128A110C280F
:10000800FE00030EF6000A08F7000A128A15B52941
:100018000A128A110F28831603130A168A11FB2560
:100028000A128A11D3000A168A11FC250A128A11AB
:10003800D400831790308400B0300A168A110A263B
:100048000A128A118313BB308400D1300A168A1130
:100058000A260A128A11F801F901FA01FB01FC01CA
:10006800FD0183010A128A154A2D831203134B08D6
:100078008039D5004B08D0005007DB00CA1F45283F
:10008800462847285B145B0803194B284C285B2833
:100098005B0A031D5028512859280030CB00003036
:1000A800CA000030C9000030C800CA1763280030F1
:1000B800CB000030CA000030C9000030C8004F082B
:1000C8008039D0005008D5064F08D0005007DA0014
:1000D800CE1F6F28702871285A145A0803197528DA
:1000E800762885285A0A031D7A287B288328003019
:1000F800CF000030CE000030CD000030CC00CE174D
:100108008D280030CF000030CE000030CD00003008
:10011800CC005A0803199128922897285B08031DD8
:1001280096289728A0280030CB000030CA0000305D
:10013800C9000030C8007D2B4808A0004E080A16E8
:100148008A1110270A128A11831203132108E10069
:100158002008E0006008D000D101D201D301530883
:10016800D9005208D8005108D7005008D6006108B5
:10017800D000D101D201D3015308DF005208DE00BC
:100188005108DD005008DC004908A0004D080A1697
:100198008A1110270A128A11831203132108E10019
:1001A8002008E0006008D000D101D201D301500836
:1001B800D607510803110318013E0319E428D7078D
:1001C800520803110318013E0319EB28D8075308F6
:1001D80003110318013E0319F228D9076108D0005A
:1001E800D101D201D3015008DC07510803110318CB
:1001F800013E03190029DD07520803110318013EC7
:1002080003190729DE07530803110318013E0319D0
:100218000E29DF074A08A0004C080A168A11102781
:100228000A128A11831203132108E1002008E00052
:100238006008D000D101D201D3015008D607510877
:1002480003110318013E03192A29D707520803117D
:100258000318013E03193129D8075308031103185D
:10026800013E03193829D9076108D000D101D2010C
:10027800D3015008DC07510803110318013E031984
:100288004629DD07520803110318013E03194D29B9
:10029800DE07530803110318013E03195429DF0729
:1002A8000830D0000310D60DD70DD80DD90DD00BBE
:1002B80056294908A0004C080A168A1110270A1264
:1002C8008A11831203132108E1002008E000600866
:1002D800D0006108D100D201D3015008D6075108D7
:1002E80003110318013E03197A29D707520803118D
:1002F8000318013E03198129D8075308031103186D
:10030800013E03198829D9074808A0004D080A1694
:100318008A1110270A128A11831203132108E10097
:100328002008E0006008D0006108D100D201D301A4
:100338005008D607510803110318013E0319A529CF
:10034800D707520803110318013E0319AC29D8072F
:10035800530803110318013E0319B329D9070830BC
:10036800D0000310D60DD70DD80DD90DD00BB52957
:100378004808A0004C080A168A1110270A128A1188
:10038800831203132108E1002008E0006008D00070
:100398006108D100D201D3015008D60751080311D2
:1003A8000318013E0319D929D70752080311031866
:1003B800013E0319E029D807530803110318013E29
:1003C8000319E729D9074908A0004E080A168A1117
:1003D80010270A128A11831203132108E10020084A
:1003E800E0006008D0006108D100D201D3015008B4
:1003F800DC07510803110318013E0319042ADD071D
:10040800520803110318013E03190B2ADE0753088B
:1004180003110318013E0319122ADF074A08A00036
:100428004D080A168A1110270A128A11831203131B
:100438002108E1002008E0006008D0006108D10030
:10044800D201D3015008DC07510803110318013EFB
:1004580003192F2ADD07520803110318013E031957
:10046800362ADE07530803110318013E03193D2AF3
:10047800DF074A08A0004E080A168A1110270A1238
:100488008A11831203132108E1002008E0006008A4
:10049800D0006108D100D201D30108300310D00D7B
:1004A800D10DD20DD30DFF3E031D522A5008DC0793
:1004B800510803110318013E0319632ADD07520886
:1004C80003110318013E03196A2ADE0753080311B2
:1004D8000318013E0319712ADF075608D000570890
:1004E800D1005808D2005908D30018300310D30C93
:1004F800D20CD10CD00CFF3E031D7A2A5008DC0721
:10050800510803110318013E03198B2ADD0752080D
:1005180003110318013E0319922ADE075308031139
:100528000318013E0319992ADF070830D000031089
:10053800D60DD70DD80DD90DD00B9B2A5B085A07BD
:10054800D000D101D10D5008823EE00051080318B7
:10055800013EFF3EE100CD2A0130D0000310DC0D42
:10056800DD0DDE0DDF0DD00BB22AD91FBC2ABD2A46
:10057800BE2A5C140130D0000310D60DD70DD80D5B
:10058800D90DD00BC02AFF30E0070318E10AFF306D
:10059800E107DE1FD02AD12AB02ADA01D91FD52ACD
:1005A800D62AF22AFF305605D000FF305705D10071
:1005B800FF305805D2007F305905D3005308520444
:1005C800510450040319E92AEA2AED2ADA01DA0A61
:1005D800F22A5C1CF02AF12AF22AEA2A5A0803199C
:1005E800F62AF72A282B0130DC07003003180130DF
:1005F800DD07003003180130DE0700300318013032
:10060800DF075F1C082B092B282B5C08D0005D082E
:10061800D1005E08D2005F08D3000130D400530D2A
:10062800D30CD20CD10CD00CD40B132B5308DF00F5
:100638005208DE005108DD005008DC000130E007F8
:100648000318E10A0030E1076108803AFF008030B2
:100658007F02031D312BFF306002031C342B352B26
:10066800402B7F3083120313DF008030DE00003020
:10067800DD000030DC00712B831203136108803A1F
:10068800FF0080307F02031D4B2B013060020318EE
:100698004E2B4F2B5B2B003083120313DF000030EF
:1006A800DE000030DD000030DC00D501712B831244
:1006B80003136008DB00FF30DC05FF30DD057F3009
:1006C800DE050030DF055B1C6A2B6B2B6C2BDE17FD
:1006D8005B08D0000310500CDF005508D00050080C
:1006E800DF045F08CB005E08CA005D08C9005C082B
:1006F800C80008008312031365088039EA006508FA
:1007080083160313A000200783120313EC00E41FD1
:100718008E2B8F2B902B6C146C080319942B952B14
:10072800A52B6C0A031D992B9A2BA22B0030E500F0
:100738000030E4000030E3000030E200E417E50197
:10074800AD2B0030E5000030E4000030E30000305D
:10075800E20069088039EB006B086A060319B52BBB
:10076800B62BB72B6A17690883160313A000200756
:1007780083120313EB00E81FC22BC32BC42B6B148B
:100788006B080319C82BC92BD92B6B0A031DCD2B5A
:10079800CE2BD62B0030E9000030E8000030E7000F
:1007A8000030E600E817E901E12B0030E9000030ED
:1007B800E8000030E7000030E6006C086B02031820
:1007C800E62BE72B112C6A1FEA2BEB2BF32B80303F
:1007D80083160313A000200883120313EA066C088B
:1007E800ED006B08EC006D08EB006208ED00660890
:1007F800E2006D08E6006308ED006708E3006D0895
:10080800E7006408ED006808E4006D08E800650882
:10081800ED006908E5006D08E900ED016B08831635
:100828000313A000A1012108A300831203136C087D
:10083800831603132002A200031CA3032308803A93
:10084800FF0080307F02031D2B2C1A302202031C6C
:100858002E2C2F2C722C8312031365086404630456
:100868006204031D382C3A2C01303B2C0030ED007B
:100878000030E5000030E4000030E3000030E20022
:100888006B08EC007A2C6D1C4A2C4B2C562C6D08EE
:1008980083160313A0000310200C013883120313DE
:1008A800ED00582C0310ED0C621C5B2C5C2C5D2CAD
:1008B800ED17013083160313A00083120313650D8F
:1008C800E50CE40CE30CE20C83160313A00B612C7B
:1008D8000130A000200883120313EC0783120313CE
:1008E8006B086C02031C792C7A2C472C6A1B7D2C14
:1008F8007E2CD32C6C08031D822C832C8C2C00306E
:10090800E5000030E4000030E3000030E200672E2C
:100918006608E207670803110318013E0319952CBE
:10092800E307680803110318013E03199C2CE40728
:10093800690803110318013E0319A32CE507651C78
:10094800A62CA72CC72D6D1CAA2CAB2CB62C6D0879
:1009580083160313A0000310200C0138831203131D
:10096800ED00B82C0310ED0C621CBB2CBC2CBD2C6C
:10097800ED17013083160313A00083120313650DCE
:10098800E50CE40CE30CE20C83160313A00BC12C5A
:100998000130A000200883120313EC07C72D650857
:1009A800803AFF006908803A7F02031DE52C680839
:1009B8006402031DE52C67086302031DE52C660825
:1009C80062020318E82CE92C792DFF3083160313F3
:1009D800A000FF30A100FF30A200FF30A300831267
:1009E8000313660883160313A4008312031367080E
:1009F80083160313A50083120313680883160313D1
:100A0800A60083120313690883160313A700831231
:100A18000313620883160313A402831203136308E3
:100A2800031C630F182D1B2D83160313A5028312B5
:100A380003136408031C640F222D252D831603134A
:100A4800A602831203136508031C650F2C2D2F2D96
:100A580083160313A70283120313831603132408B0
:100A6800A00725080318250F3A2D3B2DA1072608B6
:100A78000318260F402D412DA20727080318270A1F
:100A8800A307230883120313E50083160313220820
:100A980083120313E400831603132108831203133C
:100AA800E30083160313200883120313E200803047
:100AB80083160313A000200883120313EA06ED0926
:100AC800ED0A6D08031D692D6A2D872D0130E20797
:100AD800003003180130E307003003180130E40741
:100AE800003003180130E507872D6608E202670821
:100AF800031C670FE3026808031C680FE402690817
:100B0800031C690FE5026508640463046204031D9D
:100B18008E2D8F2DC32D6D08031D932D942DC32D60
:100B28000030E5000030E4000030E3000030E2006F
:100B3800672E013083160313A000031083120313DA
:100B4800E20DE30DE40DE50D83160313A00BA12DB3
:100B580083120313ED1FB12DB22DB32D62146D1C3A
:100B6800B62DB72DBA2D0314ED0DBC2D0310ED0DC8
:100B78006C080319C02DC12DC32D0130EC02E41FF0
:100B8800C62DC72D9D2DEB01ED1FCB2DCC2DDA2DBC
:100B98006D087F390319D12DD22DD52DEB01EB0A24
:100BA800DA2D621CD82DD92DDA2DD22D6B08031918
:100BB800DE2DDF2D332E0130E2070030031801301F
:100BC800E307003003180130E40700300318013050
:100BD800E507651CF02DF12D332E620883160313EB
:100BE800A00083120313630883160313A100831262
:100BF8000313640883160313A20083120313650802
:100C080083160313A3000130A400230DA30CA20C28
:100C1800A10CA00CA40B092E230883120313E500D2
:100C280083160313220883120313E40083160313A5
:100C3800210883120313E300831603132008831289
:100C48000313E2006C0A03192A2E2B2E332E0130CF
:100C580083160313A000200883120313EC076C0A01
:100C68000319372E382E3D2E6C08031D3C2E3D2EC1
:100C78004B2E0030E5000030E4000030E300003087
:100C8800E2006C08031D492E4A2E4B2EEA016C1C0B
:100C98004E2E4F2E512EE417592E7F3083160313F4
:100CA800A000200883120313E4056C0883160313BD
:100CB800A0000310200C83120313E500EA1F652E21
:100CC800662E672EE517080083120313B5002F0858
:100CD80084008313000884000A128A1500200A126F
:100CE8008A11253A031D792E7A2E632F0130B1001F
:100CF8002F0884003108800783160313BF01C00141
:100D08000310003003180130FC00FF30C100FF3031
:100D1800C200831203132F0884000008B4003408AB
:100D280084000A128A1500200A128A11643A0319EB
:100D38009E2E9F2EAB2E340884000A128A1500209E
:100D48000A128A11693A031DAA2EAB2E392F3008D0
:100D580084000008B10002308007310884000008D0
:100D6800B600840A0008B7002F0884003408013E42
:100D780080002030BA00B71BC22EC42E0130C52E09
:100D88000030B3000130BA023A08903E84000A30BD
:100D9800A0000030A1003708A3003608A2000A12FC
:100DA8008A15F1200A128A11831203132108A80058
:100DB8002008A7000A128A15DE200A128A11831257
:100DC80003132708303E831780000A30A60000303E
:100DD800A7003708A9003608A8000A128A154C216E
:100DE8000A128A11831203132708B7002608B600CF
:100DF800360837040319012F022F072F3A08031D5D
:100E0800062F072FC62E3A0803190B2F0C2F322F47
:100E180033080319102F112F322F0130BA023A0864
:100E2800903E84002D3083178000322F3A08903E80
:100E3800840083170008B100B2013108A10032080C
:100E4800A2003508A3000A168A11A6270A128A11D9
:100E5800013083120313B1003108BA0720303A0673
:100E6800031D372F382F1A2F7A2F2F0884000008D8
:100E780084000A128A1500200A128A11253A031DD5
:100E8800462F472F592F0130B1002F088400310811
:100E980080072530A1000030A2003508A3000A16FB
:100EA8008A11A6270A128A117A2F01308312031396
:100EB800B1002F0884003108831380077A2F2F0888
:100EC8008400000884000A128A1500200A128A1178
:100ED800B100B2013108A1003208A2003508A30010
:100EE8000A168A11A6270A128A11592F0800831296
:100EF8000313AB002B08E038AE00AF01B00100309F
:100F08000A168A1139270A128A110130831203132B
:100F1800AF070318B00A0030B0073008803AFF0066
:100F280080307F02031D9A2F04302F02031C9D2F4F
:100F38009E2F832F83120313AC01AD01CB2F831295
:100F480003132E080A168A1139270A128A118312E6
:100F5800031327080A168A1139270A128A118312DD
:100F6800031326080A168A1139270A128A118312CE
:100F7800031325080A168A1139270A128A11013023
:100F880083120313AC070318AD0A0030AD072D0810
:100F9800803AAA002908803A2A02031DD52F28087A
:100FA8002C02031CD82FD92FA32F83120313B101AE
:100FB800B201FF300A168A1139270A128A11013044
:100FC80083120313B1070318B20A0030B2073208BC
:100FD800803AFF0080307F02031DF42F0430310275
:100FE800031CF72FF82FDD2F08008B178B1683169D
:060FF80003130C170800B2
:1010000008308A000408840A820700342D342D3405
:101010002D342D342D342D342D342D342D342D34C8
:101020002D342D342D342D342D342D342D342D34B8
:101030002D342D342D342D342D342D342D342D34A8
:101040002D342D342D342D342D342D342D342D3498
:101050002D342D342D342D342D342D340D340A34CB
:101060000034543465346D34703465347234613412
:1010700074347534723461343A3420345334453422
:101080004E3453344F34523420344134503441348C
:101090004734413444344F340D340A340034483436
:1010A00075346D3465346434613464343A342034D6
:1010B000533445344E3453344F3452342034413455
:1010C000503441344734413444344F340D340A34BD
:1010D00000344E3452343A342034533445344E3490
:1010E00053344F3452342034413450344134473433
:1010F000413444344F340D340A3400344E345234C5
:101100003A34203452345534493444344F34203442
:101110004D344534443449344F340D340A340034AA
:10112000543465346D3470346534723461347434DD
:101130007534723461343A342034253464340D34D7
:101140000A3400344E3452343A3420345234553454
:10115000493444344F342034423441344A344F34D7
:101160000D340A3400344E3452343A34203452347C
:101170005534493444344F34203441344C3454349D
:101180004F340D340A340034483475346D346534CA
:101190006434613464343A3420342534643425347E
:1011A00025340D340A3400344E3452343A34203469
:0A11B000253464340D340A34003491
:1011BC0083120313A81BE328E428E528F028270949
:1011CC00A9002809AA00A90A0319AA0A2908A70034
:1011DC002A08A800080083120313A601A31FF728EE
:1011EC00F828FF28A209A309A20A0319A30AA60139
:1011FC00A60AA11F022903290829A009A109A00AEE
:10120C000319A10A2008210403190D290E293D29CF
:10121C00A501A50A1C2901300310A00DA10DFF3E4C
:10122C00031D12290130A4002408A507A11F1F29A2
:10123C002029112921082302031D26292008220216
:10124C00031C29292A2930292008A2022108031C61
:10125C00A303A30201300310A10CA00CFF3E031D3D
:10126C0031290130A502031D3C293D2920292608DE
:10127C000319412942294729A209A309A20A0319E2
:10128C00A30A2308A1002208A0000800831203135C
:10129C00AC01A71F522953295A29A609A709A60A46
:1012AC000319A70AAC01AC0AA91F5D295E2967299D
:1012BC00A809A909A80A0319A90A0130AA002A0831
:1012CC00AC06AD01AE012608270403196E296F295F
:1012DC00A629AB01AB0A7D2901300310A60DA70D81
:1012EC00FF3E031D73290130AA002A08AB07A71F74
:1012FC0080298129722901300310AD0DAE0DFF3EFE
:10130C00031D822927082902031D8E29260828027D
:10131C00031C9129922999292608A8022708031C45
:10132C00A903A9022D1401300310A70CA60CFF3E33
:10133C00031D9A290130AB02031DA529A629812979
:10134C002C080319AA29AB29B029AD09AE09AD0A9D
:10135C000319AE0A2E08A7002D08A60008009D3020
:10136C00831203138100E8308316031347060330FE
:10137C0003194806031DC329C429DE2901300A16A6
:10138C008A118C260A128A15710883160313CE0053
:10139C007008CD0002300A168A118C260A128A15A2
:1013AC00710883160313CA007008C900C701C8016D
:1013BC00C83045064604031DE429E529162A0030E9
:1013CC000A168A118C260A128A157108FB007008FD
:1013DC00FA007B087902031DF5297A0878020318B4
:1013EC00F829F929FD297B08F9007A08F800013061
:1013FC0083160313C3070318C40A0030C4076430F0
:10140C0043064404031D0B2A0C2A142A7908CC0029
:10141C007808CB00F801F901C301C401C501C6016C
:10142C00831203138C10013083160313C7070318A0
:10143C00C80A0030C8070130C5070318C60A0030B7
:10144C00C6070B1177088A00760E8300FE0E7E0EFF
:10145C0009000310831603132A0D2B0D831203139B
:10146C00EF006F08031D3B2A3C2A472A00308316E5
:10147C000313AB000030AA000030A9000030A80014
:10148C00BC2A831603132808AC002908AD002A08CF
:10149C00AE002B08AF001F300310AF0CAE0CAD0C20
:1014AC00AC0CFF3E031D522A2C0883120313EE00D2
:1014BC0083160313AA17FF30A805FF30A905FF30C8
:1014CC00AA050030AB05963083120313EF02EF1F11
:1014DC00702A712A8F2A6F08803A973E0318772A50
:1014EC00782A792A3C2A0130031083160313AB0C9B
:1014FC00AA0CA90CA80CFF3E031D7A2A0130AC00E3
:10150C002C0883120313EF07031D8D2A8E2A792AC8
:10151C00AA2A20306F02031C942A952AA52A3C2A59
:10152C00013083160313AC000310A80DA90DAA0DEE
:10153C00AB0DAC0B9A2A013083120313EF026F0828
:10154C00031DA92AAA2A962A6E080319AE2AAF2AC5
:10155C00BC2A83160313A809A909AA09AB09A80A6E
:10156C000319A90A0319AA0A0319AB0A0800831262
:10157C000313A80028080319C42AC52AD92AA31FB3
:10158C00C82AC92AD92A2009AA002109AB00220994
:10159C00AC002309AD00AA0A0319AB0A0319AC0A63
:1015AC000319AD0AE12A2308AD002208AC0021087A
:1015BC00AB002008AA002308220421042004031DE8
:1015CC00E82AE92AF22A0030A3000030A2000030F9
:1015DC00A1000030A000762B9630A900022B013020
:1015EC00A4002408A90701300310AD0CAC0CAB0C03
:1015FC00AA0CFF3E031DFA2AFE302D05031D072BF6
:10160C00082BF52A242B0130A4002408A90701304B
:10161C00AA07003003180130AB0700300318013063
:10162C00AC07003003180130AD0701300310AD0CCE
:10163C00AC0CAB0CAA0CFF3E031D1C2BFF302D0574
:10164C00031D292B2A2B092B362B0130A902013023
:10165C00A4000310AA0DAB0DAC0DAD0DA40B2F2BDC
:10166C00AC1B392B3A2B402B0230290203183F2B91
:10167C00402B2B2B2918432B442B4C2BFF30AA052A
:10168C00FF30AB057F30AC05FF30AD050310A90C66
:10169C002908A400A501A601A70118300310A40D68
:1016AC00A50DA60DA70DFF3E031D542B2408AA045F
:1016BC002508AB042608AC042708AD042808031938
:1016CC00682B692B6E2BA31F6C2B6D2B6E2BAD1700
:1016DC002D08A3002C08A2002B08A1002A08A000AA
:1016EC0008008312031335088039BF003508B60093
:1016FC003607C600B41F832B842B852B4614460853
:10170C000319892B8A2B9A2B460A031D8E2B8F2BA0
:10171C00972B0030B5000030B4000030B30000301F
:10172C00B200B417B501A22B0030B5000030B400E4
:10173C000030B3000030B20031088039B6003608F2
:10174C00BF063108B6003607C700B01FAE2BAF2B53
:10175C00B02B471447080319B42BB52BC52B470ADC
:10176C00031DB92BBA2BC22B0030B1000030B000D6
:10177C000030AF000030AE00B017B101CD2B0030FF
:10178C00B1000030B0000030AF000030AE003108C6
:10179C0030042F042E04031DD42BD52BEE2B00303C
:1017AC00B5000030B4000030B3000030B20080301F
:1017BC00B4047F30B5043F08B6003608B5043508CC
:1017CC00B1003408B0003308AF003208AE00492D28
:1017DC004608031DF22BF32BFC2B0030B10000301C
:1017EC00B0000030AF000030AE00492D4608B60006
:1017FC00B7013708B90047083602B800031CB90313
:10180C0038087F3EC00039080318013E003EC10075
:10181C003508BE003408BD003308BC003208BB00DC
:10182C000030B5000030B4000030B3000030B2001E
:10183C000030C5000030C4000030C3000030C200CE
:10184C00C701722C470803192C2C2D2C4D2C013060
:10185C00B6000310BB0DBC0DBD0DBE0DB60B2F2C71
:10186C000130B6000310B20DB30DB40DB50DB60BAF
:10187C00382CC51F422C432C442C32140130B6009A
:10188C000310C20DC30DC40DC50DB60B462C31088B
:10189C003E02031D5B2C30083D02031D5B2C2F0800
:1018AC003C02031D5B2C2E083B02031C5E2C5F2CA0
:1018BC006E2C45172E08BB022F08031C2F0FBC02E1
:1018CC003008031C300FBD023108031C310FBE025F
:1018DC000130B6003608C7071A304702031C772CB4
:1018EC00782C282C3E083D043C043B0403197F2C27
:1018FC00802C9F2C42149F2C0130B6000310B20D8B
:10190C00B30DB40DB50DB60B842CC51F8E2C8F2CBE
:10191C00902C32140130B6000310C20DC30DC40D4F
:10192C00C50DB60B922CFF30C0070318C10AFF304F
:10193C00C107B41FA22CA32C822CC701C51FA72C36
:10194C00A82CC42CFF304205B600FF304305B7006D
:10195C00FF304405B8007F304505B900390838041C
:10196C00370436040319BB2CBC2CBF2CC701C70A87
:10197C00C42C321CC22CC32CC42CBC2C47080319FD
:10198C00C82CC92CFA2C0130B207003003180130D6
:10199C00B307003003180130B407003003180130CE
:1019AC00B507351CDA2CDB2CFA2C3208B6003308C0
:1019BC00B7003408B8003508B9000130BA00390D49
:1019CC00B90CB80CB70CB60CBA0BE52C3908B50031
:1019DC003808B4003708B3003608B2000130C0072D
:1019EC000318C10A0030C1074108803AFF0080305B
:1019FC007F02031D032DFF304002031C062D072D13
:101A0C00152DFF3083120313C0000030C1000030CD
:101A1C00B5000030B4000030B3000030B2008312C7
:101A2C0003134108803AFF0080307F02031D202DF4
:101A3C00013040020318232D242D312D8312031362
:101A4C00C001C1010030B5000030B4000030B3005B
:101A5C000030B200BF01831203134008C600461CBD
:101A6C00382D392D3B2DB4173F2D7F30B60036085D
:101A7C00B4054608B6000310360CB5003F08B60096
:101A8C003608B504E52B08000830831603138F00C5
:101A9C000A168A1133260A128A150A168A1170261A
:101AAC000A128A150A168A111C260A128A150A1697
:101ABC008A1112260A128A150A168A11FD250A1293
:101ACC008A150A168A115E260A128A150A168A11B6
:101ADC0027260A128A150A168A1102260A128A1554
:101AEC000A128A11F9270A128A1564308312031319
:101AFC00A6000030A7001930A0000030A100A630CD
:101B0C00A2000030A3000A168A11E9260A128A15CF
:101B1C00831203132108A9002008A8000A128A15B1
:101B2C004C210A128A1583120313270883160313F8
:101B3C00D20083120313260883160313D1009630A8
:101B4C0083120313A500A601A7010A30A8000030D8
:101B5C00A9001F300A128A117B270A128A1500303D
:101B6C000A168A11A9260A128A1501300A168A1138
:101B7C00A9260A128A1501300A168A114E260A1253
:101B8C008A1583160313490883120313A0008316C6
:101B9C0003134A0883120313A100A201A30100300E
:101BAC000A128A15BD220A128A15831203132308FE
:101BBC00B5002208B4002108B3002008B20044305C
:101BCC00B1008030B0000030AF000030AE000A121F
:101BDC008A1577230A128A15831203133108CF0052
:101BEC003008CE002F08CD002E08CC004030CB00A2
:101BFC00A030CA000030C9000030C8000A128A1197
:101C0C0039200A128A15831203134B088316031307
:101C1C00B600831203134A0883160313B50083120C
:101C2C000313490883160313B400831203134808E3
:101C3C0083160313B300360883120313B5008316FF
:101C4C000313350883120313B400831603133408EB
:101C5C0083120313B3008316031333088312031385
:101C6C00B2003C30B1002330B000D730AF000A30A6
:101C7C00AE000A128A1577230A128A1583120313EF
:101C8C003108E9003008E8002F08E7002E08E600CC
:101C9C00C230E5000430E4000030E3000030E20024
:101CAC000A128A117E230A128A15831203136508FD
:101CBC0083160313AB0083120313640883160313F8
:101CCC00AA0083120313630883160313A90083125B
:101CDC000313620883160313A8000A128A152F2215
:101CEC000A128A15831603132908BA002808B900AA
:101CFC004D0883120313A000831603134E0883129E
:101D0C000313A100A201A30100300A128A15BD22FF
:101D1C000A128A15831203132308B5002208B40093
:101D2C002108B3002008B2004430B1008030B0006C
:101D3C000030AF000030AE000A128A1577230A1269
:101D4C008A15831203133108CF003008CE002F08F8
:101D5C00CD002E08CC004030CB00A030CA000030A3
:101D6C00C9000030C8000A128A1139200A128A15DB
:101D7C00831203134B08E9004A08E8004908E700FE
:101D8C004808E600BF30E5005330E4007430E3004F
:101D9C00BC30E2000A128A117E230A128A158312C1
:101DAC000313650883160313B60083120313640828
:101DBC0083160313B50083120313630883160313EE
:101DCC00B40083120313620883160313B30036089E
:101DDC0083120313B5008316031335088312031300
:101DEC00B40083160313340883120313B300831651
:101DFC000313330883120313B2003D30B1000130DA
:101E0C00B0000630AF002530AE000A128A157723D9
:101E1C000A128A1583120313310883160313AB00BD
:101E2C0083120313300883160313AA0083120313BF
:101E3C002F0883160313A900831203132E0883168D
:101E4C000313A8000A128A152F220A128A15831668
:101E5C0003132908B8002808B7005108831203138C
:101E6C009500831603133A08803AFF0080307F02F6
:101E7C00031D422F01303902031C452F462F592FC9
:101E8C00831603133A0883120313C000831603133B
:101E9C00390883120313BF008B300A168A114E26A1
:101EAC000A128A155F2F2C300A168A114E260A1236
:101EBC008A15831603134D084E040319662F672FDA
:101ECC00782F380883120313C000831603133708C6
:101EDC0083120313BF00BF300A168A114E260A1252
:101EEC008A157E2F4A300A168A114E260A128A1536
:101EFC00780879040319832F842F942F01307902E9
:101F0C0091300319780203188C2F8D2F942F9D304C
:101F1C000A168A114E260A128A15C32F013079022D
:101F2C00913003197802031C9C2F9D2FAD2F033089
:101F3C0079028530031978020318A52FA62FAD2F2F
:101F4C0079300A168A114E260A128A15C32F0330CD
:101F5C007902853003197802031CB52FB62FBD2FDB
:101F6C00AE300A168A114E260A128A15C32F643017
:101F7C000A168A114E260A128A157908831203133F
:101F8C00C0007808BF00CF300A168A114E260A12FC
:101F9C008A1501300A168A114E260A128A158316E2
:101FAC000313390883120313A00000300A168A1198
:101FBC006F270A128A15831603133708831203132B
:101FCC00A00001300A168A116F270A128A151A30DE
:101FDC0083160313B2005E30B1006D30B000B00B4D
:101FEC00F52FB10BF52FB20BF52FFC2FC12D0A12CB
:041FFC008A110C2812
:102BF6000134003483160313071087120800831666
:102C060003138701831603178801890108006400EE
:102C16008001840A04060319003404060B2EFF30D3
:102C26008316031385008601013083160317880077
:102C360008008316031381128111073081049D3029
:102C460083120313810008003F3083120313970594
:102C5600CF3097051708F0390C3897009501080012
:102C6600831203131F083F3980389F001F148316F1
:102C760003139F171F129F12080083120313A0004D
:102C860083160313981C482E492E432E83120313D2
:102C960020089900080083120313C2003F30C100C8
:102CA6004208BB004130BC0000300A168A11C82613
:102CB6000A168A110800873083120313920512152B
:102CC600FC309205831603138C14831203138C10A5
:102CD600A6308316031392000800831603131811F7
:102CE600831603178711831603139A012030990060
:102CF60018121813831203131813831603130C12D6
:102D06008C128312031398178316031398129816BE
:102D16000800F500831203131F147508F200F20D64
:102D2600F20D1F087206C33972069F009F149F1882
:102D36009D2E9E2E9A2E1E08F400831603131E083F
:102D4600F3007408F1007308F000080083120313FF
:102D5600A1006400831603178C18B22EB52E8312B9
:102D66000313AC2E831203132108831203178D005D
:102D76003F3083120313A0002008831603178C0527
:102D86000C14831203170C08080083120313BD00EA
:102D96003B08BE00D82E3E30AF003C08B0003D08D0
:102DA6000A128A1168260A168A11831203133E082C
:102DB60084000A128A1500200A168A11003A031D99
:102DC600E52EE62ECE2EBB01BC01080083120313AE
:102DD600A401A501201CF02EF12EF72E2208A4072F
:102DE6000318A50A2308A50701300310A20DA30D99
:102DF600FF3E031DF82E01300310A10CA00CFF3E70
:102E0600031DFF2E20082104031D0A2F0B2FED2E74
:102E16002508A1002408A000080083120313A800B7
:102E2600A401A5012008A200A3012208A6002308E8
:102E3600A700281C1F2F202F262F2608A4070318BB
:102E4600A50A2708A50701300310A60DA70DFF3E0A
:102E5600031D272F0310A80C2808031D332F342F1A
:102E66001C2F2508A1002408A000080083120313C4
:102E7600A200A3010830A4002208A0002408FF3EF7
:102E8600013E472F0310A00CFF3E031D452F2018BF
:102E96004D2F512F831203138716542F83120313BA
:102EA60087120714050EA000200C0139A100210885
:102EB600A304071002302402031C622F632F672F1E
:102EC6002308A0002007A3000130A4022408031D44
:102ED6006D2F6E2F3F2F080083120313A200831657
:102EE60003178C18772F782F722F8312031322085B
:102EF600831203178D00831203132008831203170E
:102F06008C003F3083120313A10021088316031798
:102F16008C058312031303108B1F922F932F942F6C
:102F260003148B13831603170C1555308D00AA3026
:102F36008D008C140C1183120313031CA32FA42FD2
:102F4600A52F8B1708008312031323080319AC2F30
:102F5600AD2FB22F2308031DB12FB22FB92F210891
:102F66000A168A1140260A168A11FF2F2308093EDF
:102F7600840083130008A400840A0008A50024081E
:102F860025040319C72FC82FE62F2308093E8400FE
:102F96000008A400840A0008A5002308023E840055
:102FA6000008A600840A0008A7002708803AA8009F
:102FB6002508803A2802031DE22F2408260203185A
:102FC600E52FE62FFF2F831203132308023E84000A
:102FD60083130008A4002308840000082407A50022
:102FE60025088400210880002308023E8400013061
:0A2FF6008007840A0318800A08000F
:04400E00E220FF3E6F
:00000001FF
